S00D0000536572766F2E7372656308
S11300000C9434000C943E000C943E000C943E007E
S11300100C943E000C943E000C943E000C943E0064
S11300200C943E000C943E000C943E000C943E0054
S11300300C943E000C943E000C943E000C943E0044
S11300400C943E000C943E000C943E000C943E0034
S11300500C943E000C943E000C943E000C943E0024
S11300600C943E000C943E0011241FBECFEFD8E048
S1130070DEBFCDBF0E9440000C9471000C940000C0
S11300808CE084B915B88CEF8AB98CE0189B13C046
S1130090199911C015B82FEF39EF90E02150304075
S11300A09040E1F700C0000085B9EFE9FFE0319727
S11300B0F1F700C000001899E9CF199BE7CF15B8F4
S11300C0FFEF29EF30E0F15020403040E1F700C06D
S11300D0000085B9EFE3FFE13197F1F700C00000BC
S10900E0D5CFF894FFCF18
S9030000FC
